{
  "_format": "hh-sol-artifact-1",
  "contractName": "FixedStaking",
  "sourceName": "contracts/staker.sol",
  "abi": [
    {
      "inputs": [
        {
          "internalType": "address",
          "name": "_token",
          "type": "address"
        }
      ],
      "stateMutability": "nonpayable",
      "type": "constructor"
    },
    {
      "inputs": [
        {
          "internalType": "address",
          "name": "target",
          "type": "address"
        }
      ],
      "name": "AddressEmptyCode",
      "type": "error"
    },
    {
      "inputs": [
        {
          "internalType": "address",
          "name": "account",
          "type": "address"
        }
      ],
      "name": "AddressInsufficientBalance",
      "type": "error"
    },
    {
      "inputs": [],
      "name": "FailedInnerCall",
      "type": "error"
    },
    {
      "inputs": [],
      "name": "ReentrancyGuardReentrantCall",
      "type": "error"
    },
    {
      "inputs": [
        {
          "internalType": "address",
          "name": "token",
          "type": "address"
        }
      ],
      "name": "SafeERC20FailedOperation",
      "type": "error"
    },
    {
      "anonymous": false,
      "inputs": [
        {
          "indexed": true,
          "internalType": "address",
          "name": "staker",
          "type": "address"
        },
        {
          "indexed": false,
          "internalType": "uint256",
          "name": "amount",
          "type": "uint256"
        },
        {
          "indexed": false,
          "internalType": "uint256",
          "name": "duration",
          "type": "uint256"
        }
      ],
      "name": "Staked",
      "type": "event"
    },
    {
      "anonymous": false,
      "inputs": [
        {
          "indexed": true,
          "internalType": "address",
          "name": "staker",
          "type": "address"
        },
        {
          "indexed": false,
          "internalType": "uint256",
          "name": "amount",
          "type": "uint256"
        }
      ],
      "name": "Withdrawn",
      "type": "event"
    },
    {
      "inputs": [],
      "name": "EARLY_WITHDRAWAL_TAX_PERCENT",
      "outputs": [
        {
          "internalType": "uint256",
          "name": "",
          "type": "uint256"
        }
      ],
      "stateMutability": "view",
      "type": "function"
    },
    {
      "inputs": [],
      "name": "WITHDRAWAL_TAX_PERCENT",
      "outputs": [
        {
          "internalType": "uint256",
          "name": "",
          "type": "uint256"
        }
      ],
      "stateMutability": "view",
      "type": "function"
    },
    {
      "inputs": [
        {
          "internalType": "address",
          "name": "_user",
          "type": "address"
        }
      ],
      "name": "calculateRewardsForUser",
      "outputs": [
        {
          "internalType": "uint256[]",
          "name": "",
          "type": "uint256[]"
        }
      ],
      "stateMutability": "view",
      "type": "function"
    },
    {
      "inputs": [
        {
          "internalType": "uint256",
          "name": "",
          "type": "uint256"
        }
      ],
      "name": "durationToAPY",
      "outputs": [
        {
          "internalType": "uint256",
          "name": "",
          "type": "uint256"
        }
      ],
      "stateMutability": "view",
      "type": "function"
    },
    {
      "inputs": [
        {
          "internalType": "address",
          "name": "_user",
          "type": "address"
        }
      ],
      "name": "getStakes",
      "outputs": [
        {
          "components": [
            {
              "internalType": "uint256",
              "name": "amount",
              "type": "uint256"
            },
            {
              "internalType": "uint256",
              "name": "duration",
              "type": "uint256"
            },
            {
              "internalType": "uint256",
              "name": "startTime",
              "type": "uint256"
            },
            {
              "internalType": "uint256",
              "name": "apy",
              "type": "uint256"
            },
            {
              "internalType": "bool",
              "name": "isWithdrawn",
              "type": "bool"
            }
          ],
          "internalType": "struct FixedStaking.Stake[]",
          "name": "",
          "type": "tuple[]"
        }
      ],
      "stateMutability": "view",
      "type": "function"
    },
    {
      "inputs": [],
      "name": "getTVL",
      "outputs": [
        {
          "internalType": "uint256",
          "name": "",
          "type": "uint256"
        }
      ],
      "stateMutability": "view",
      "type": "function"
    },
    {
      "inputs": [],
      "name": "owner",
      "outputs": [
        {
          "internalType": "address",
          "name": "",
          "type": "address"
        }
      ],
      "stateMutability": "view",
      "type": "function"
    },
    {
      "inputs": [
        {
          "internalType": "uint256",
          "name": "_selectedDurationIndex",
          "type": "uint256"
        },
        {
          "internalType": "uint256",
          "name": "_amount",
          "type": "uint256"
        }
      ],
      "name": "stakeTokens",
      "outputs": [],
      "stateMutability": "nonpayable",
      "type": "function"
    },
    {
      "inputs": [
        {
          "internalType": "uint256",
          "name": "",
          "type": "uint256"
        }
      ],
      "name": "stakingDurations",
      "outputs": [
        {
          "internalType": "uint256",
          "name": "",
          "type": "uint256"
        }
      ],
      "stateMutability": "view",
      "type": "function"
    },
    {
      "inputs": [],
      "name": "stakingToken",
      "outputs": [
        {
          "internalType": "contract IERC20",
          "name": "",
          "type": "address"
        }
      ],
      "stateMutability": "view",
      "type": "function"
    },
    {
      "inputs": [],
      "name": "totalStaked",
      "outputs": [
        {
          "internalType": "uint256",
          "name": "",
          "type": "uint256"
        }
      ],
      "stateMutability": "view",
      "type": "function"
    },
    {
      "inputs": [
        {
          "internalType": "uint256",
          "name": "_duration",
          "type": "uint256"
        },
        {
          "internalType": "uint256",
          "name": "_newAPY",
          "type": "uint256"
        }
      ],
      "name": "updateAPY",
      "outputs": [],
      "stateMutability": "nonpayable",
      "type": "function"
    },
    {
      "inputs": [
        {
          "internalType": "address",
          "name": "",
          "type": "address"
        },
        {
          "internalType": "uint256",
          "name": "",
          "type": "uint256"
        }
      ],
      "name": "userStakes",
      "outputs": [
        {
          "internalType": "uint256",
          "name": "amount",
          "type": "uint256"
        },
        {
          "internalType": "uint256",
          "name": "duration",
          "type": "uint256"
        },
        {
          "internalType": "uint256",
          "name": "startTime",
          "type": "uint256"
        },
        {
          "internalType": "uint256",
          "name": "apy",
          "type": "uint256"
        },
        {
          "internalType": "bool",
          "name": "isWithdrawn",
          "type": "bool"
        }
      ],
      "stateMutability": "view",
      "type": "function"
    },
    {
      "inputs": [
        {
          "internalType": "uint256",
          "name": "_stakeIndex",
          "type": "uint256"
        }
      ],
      "name": "withdrawTokens",
      "outputs": [
        {
          "internalType": "uint256",
          "name": "",
          "type": "uint256"
        }
      ],
      "stateMutability": "nonpayable",
      "type": "function"
    }
  ],
  "bytecode": "0x60806040526040518060a0016040528062093a8062ffffff1681526020016212750062ffffff168152602001621baf8062ffffff16815260200162278d0062ffffff168152602001624f1a0062ffffff16815250600590600562000065929190620001bb565b503480156200007357600080fd5b5060405162001f9138038062001f9183398181016040528101906200009991906200029d565b600160008190555080600160006101000a81548173ffffffffffffffffffffffffffffffffffffffff021916908373ffffffffffffffffffffffffffffffffffffffff1602179055506110046004600062093a8081526020019081526020016000208190555061106860046000621275008152602001908152602001600020819055506110cc60046000621baf808152602001908152602001600020819055506111306004600062278d0081526020019081526020016000208190555061119460046000624f1a0081526020019081526020016000208190555033600260006101000a81548173ffffffffffffffffffffffffffffffffffffffff021916908373ffffffffffffffffffffffffffffffffffffffff16021790555050620002cf565b82805482825590600052602060002090810192821562000201579160200282015b8281111562000200578251829062ffffff16905591602001919060010190620001dc565b5b50905062000210919062000214565b5090565b5b808211156200022f57600081600090555060010162000215565b5090565b600080fd5b600073ffffffffffffffffffffffffffffffffffffffff82169050919050565b6000620002658262000238565b9050919050565b620002778162000258565b81146200028357600080fd5b50565b60008151905062000297816200026c565b92915050565b600060208284031215620002b657620002b562000233565b5b6000620002c68482850162000286565b91505092915050565b611cb280620002df6000396000f3fe608060405234801561001057600080fd5b50600436106100ea5760003560e01c80638c893dfc1161008c578063aa9a196f11610066578063aa9a196f14610261578063b5d5b5fa1461027d578063c9189e3e146102b1578063cfff0732146102e1576100ea565b80638c893dfc146101f55780638da5cb5b1461022557806397b3fcaa14610243576100ea565b80633b7b6188116100c85780633b7b61881461016d57806372f702f3146101895780637ba6f458146101a7578063817b1cd2146101d7576100ea565b8063295926b2146100ef578063315a095d1461010d57806333eae2c61461013d575b600080fd5b6100f76102ff565b60405161010491906111bc565b60405180910390f35b61012760048036038101906101229190611208565b610304565b60405161013491906111bc565b60405180910390f35b61015760048036038101906101529190611208565b61054c565b60405161016491906111bc565b60405180910390f35b61018760048036038101906101829190611235565b610564565b005b61019161086e565b60405161019e91906112f4565b60405180910390f35b6101c160048036038101906101bc919061134d565b610894565b6040516101ce91906114bb565b60405180910390f35b6101df610975565b6040516101ec91906111bc565b60405180910390f35b61020f600480360381019061020a919061134d565b61097b565b60405161021c919061158c565b60405180910390f35b61022d610a80565b60405161023a91906115bd565b60405180910390f35b61024b610aa6565b60405161025891906111bc565b60405180910390f35b61027b60048036038101906102769190611235565b610b49565b005b610297600480360381019061029291906115d8565b610c38565b6040516102a8959493929190611627565b60405180910390f35b6102cb60048036038101906102c69190611208565b610c98565b6040516102d891906111bc565b60405180910390f35b6102e9610cbc565b6040516102f691906111bc565b60405180910390f35b600181565b600061030e610cc1565b600360003373ffffffffffffffffffffffffffffffffffffffff1673ffffffffffffffffffffffffffffffffffffffff168152602001908152602001600020805490508210610392576040517f08c379a0000000000000000000000000000000000000000000000000000000008152600401610389906116d7565b60405180910390fd5b6000600360003373ffffffffffffffffffffffffffffffffffffffff1673ffffffffffffffffffffffffffffffffffffffff16815260200190815260200160002083815481106103e5576103e46116f7565b5b906000526020600020906005020190508060040160009054906101000a900460ff1615610447576040517f08c379a000000000000000000000000000000000000000000000000000000000815260040161043e90611772565b60405180910390fd5b600061045282610d07565b9050600081836000015461046691906117c1565b905060018360040160006101000a81548160ff021916908315150217905550806006600082825461049791906117f5565b925050819055506104eb3382600160009054906101000a900473ffffffffffffffffffffffffffffffffffffffff1673ffffffffffffffffffffffffffffffffffffffff16610e4a9092919063ffffffff16565b3373ffffffffffffffffffffffffffffffffffffffff167f7084f5476618d8e60b11ef0d7d3f06914655adb8793e28ff7f018d4c76d505d58260405161053191906111bc565b60405180910390a2809350505050610547610ec9565b919050565b60046020528060005260406000206000915090505481565b61056c610cc1565b60058054905082106105b3576040517f08c379a00000000000000000000000000000000000000000000000000000000081526004016105aa90611875565b60405180910390fd5b80600160009054906101000a900473ffffffffffffffffffffffffffffffffffffffff1673ffffffffffffffffffffffffffffffffffffffff166370a08231336040518263ffffffff1660e01b815260040161060f91906115bd565b602060405180830381865afa15801561062c573d6000803e3d6000fd5b505050506040513d601f19601f8201168201806040525081019061065091906118aa565b1015610691576040517f08c379a000000000000000000000000000000000000000000000000000000000815260040161068890611923565b60405180910390fd5b6000600583815481106106a7576106a66116f7565b5b90600052602060002001549050600060046000838152602001908152602001600020549050600360003373ffffffffffffffffffffffffffffffffffffffff1673ffffffffffffffffffffffffffffffffffffffff1681526020019081526020016000206040518060a001604052808581526020018481526020014281526020018381526020016000151581525090806001815401808255809150506001900390600052602060002090600502016000909190919091506000820151816000015560208201518160010155604082015181600201556060820151816003015560808201518160040160006101000a81548160ff021916908315150217905550505082600660008282546107ba91906117c1565b92505081905550610810333085600160009054906101000a900473ffffffffffffffffffffffffffffffffffffffff1673ffffffffffffffffffffffffffffffffffffffff16610ed3909392919063ffffffff16565b3373ffffffffffffffffffffffffffffffffffffffff167f1449c6dd7851abc30abf37f57715f492010519147cc2652fbc38202c18a6ee908484604051610858929190611943565b60405180910390a2505061086a610ec9565b5050565b600160009054906101000a900473ffffffffffffffffffffffffffffffffffffffff1681565b6060600360008373ffffffffffffffffffffffffffffffffffffffff1673ffffffffffffffffffffffffffffffffffffffff168152602001908152602001600020805480602002602001604051908101604052809291908181526020016000905b8282101561096a57838290600052602060002090600502016040518060a0016040529081600082015481526020016001820154815260200160028201548152602001600382015481526020016004820160009054906101000a900460ff161515151581525050815260200190600101906108f5565b505050509050919050565b60065481565b60606000600360008473ffffffffffffffffffffffffffffffffffffffff1673ffffffffffffffffffffffffffffffffffffffff16815260200190815260200160002090506000818054905067ffffffffffffffff8111156109e0576109df61196c565b5b604051908082528060200260200182016040528015610a0e5781602001602082028036833780820191505090505b50905060005b8280549050811015610a7557610a49838281548110610a3657610a356116f7565b5b9060005260206000209060050201610d07565b828281518110610a5c57610a5b6116f7565b5b6020026020010181815250508080600101915050610a14565b508092505050919050565b600260009054906101000a900473ffffffffffffffffffffffffffffffffffffffff1681565b6000600160009054906101000a900473ffffffffffffffffffffffffffffffffffffffff1673ffffffffffffffffffffffffffffffffffffffff166370a08231306040518263ffffffff1660e01b8152600401610b0391906115bd565b602060405180830381865afa158015610b20573d6000803e3d6000fd5b505050506040513d601f19601f82011682018060405250810190610b4491906118aa565b905090565b600260009054906101000a900473ffffffffffffffffffffffffffffffffffffffff1673ffffffffffffffffffffffffffffffffffffffff163373ffffffffffffffffffffffffffffffffffffffff1614610bd9576040517f08c379a0000000000000000000000000000000000000000000000000000000008152600401610bd090611a0d565b60405180910390fd5b60008111610c1c576040517f08c379a0000000000000000000000000000000000000000000000000000000008152600401610c1390611a79565b60405180910390fd5b8060046000848152602001908152602001600020819055505050565b60036020528160005260406000208181548110610c5457600080fd5b9060005260206000209060050201600091509150508060000154908060010154908060020154908060030154908060040160009054906101000a900460ff16905085565b60058181548110610ca857600080fd5b906000526020600020016000915090505481565b600481565b600260005403610cfd576040517f3ee5aeb500000000000000000000000000000000000000000000000000000000815260040160405180910390fd5b6002600081905550565b600080826002015442610d1a91906117f5565b9050600080670de0b6b3a7640000905084600101548310610dc15760006660cd18c314000082876001015488600301548960000154610d599190611a99565b610d639190611a99565b610d6d9190611a99565b610d779190611b0a565b9050816064610d869190611a99565b600182610d939190611a99565b610d9d9190611b0a565b9250818382610dac91906117f5565b610db69190611b0a565b945050505050610e45565b60006660cd18c3140000828588600301548960000154610de19190611a99565b610deb9190611a99565b610df59190611a99565b610dff9190611b0a565b9050816064610e0e9190611a99565b600482610e1b9190611a99565b610e259190611b0a565b9250818382610e3491906117f5565b610e3e9190611b0a565b9450505050505b919050565b610ec4838473ffffffffffffffffffffffffffffffffffffffff1663a9059cbb8585604051602401610e7d929190611b3b565b604051602081830303815290604052915060e01b6020820180517bffffffffffffffffffffffffffffffffffffffffffffffffffffffff8381831617835250505050610f55565b505050565b6001600081905550565b610f4f848573ffffffffffffffffffffffffffffffffffffffff166323b872dd868686604051602401610f0893929190611b64565b604051602081830303815290604052915060e01b6020820180517bffffffffffffffffffffffffffffffffffffffffffffffffffffffff8381831617835250505050610f55565b50505050565b6000610f80828473ffffffffffffffffffffffffffffffffffffffff16610fec90919063ffffffff16565b90506000815114158015610fa5575080806020019051810190610fa39190611bc7565b155b15610fe757826040517f5274afe7000000000000000000000000000000000000000000000000000000008152600401610fde91906115bd565b60405180910390fd5b505050565b6060610ffa83836000611002565b905092915050565b60608147101561104957306040517fcd78605900000000000000000000000000000000000000000000000000000000815260040161104091906115bd565b60405180910390fd5b6000808573ffffffffffffffffffffffffffffffffffffffff1684866040516110729190611c65565b60006040518083038185875af1925050503d80600081146110af576040519150601f19603f3d011682016040523d82523d6000602084013e6110b4565b606091505b50915091506110c48683836110cf565b925050509392505050565b6060826110e4576110df8261115e565b611156565b6000825114801561110c575060008473ffffffffffffffffffffffffffffffffffffffff163b145b1561114e57836040517f9996b31500000000000000000000000000000000000000000000000000000000815260040161114591906115bd565b60405180910390fd5b819050611157565b5b9392505050565b6000815111156111715780518082602001fd5b6040517f1425ea4200000000000000000000000000000000000000000000000000000000815260040160405180910390fd5b6000819050919050565b6111b6816111a3565b82525050565b60006020820190506111d160008301846111ad565b92915050565b600080fd5b6111e5816111a3565b81146111f057600080fd5b50565b600081359050611202816111dc565b92915050565b60006020828403121561121e5761121d6111d7565b5b600061122c848285016111f3565b91505092915050565b6000806040838503121561124c5761124b6111d7565b5b600061125a858286016111f3565b925050602061126b858286016111f3565b9150509250929050565b600073ffffffffffffffffffffffffffffffffffffffff82169050919050565b6000819050919050565b60006112ba6112b56112b084611275565b611295565b611275565b9050919050565b60006112cc8261129f565b9050919050565b60006112de826112c1565b9050919050565b6112ee816112d3565b82525050565b600060208201905061130960008301846112e5565b92915050565b600061131a82611275565b9050919050565b61132a8161130f565b811461133557600080fd5b50565b60008135905061134781611321565b92915050565b600060208284031215611363576113626111d7565b5b600061137184828501611338565b91505092915050565b600081519050919050565b600082825260208201905092915050565b6000819050602082019050919050565b6113af816111a3565b82525050565b60008115159050919050565b6113ca816113b5565b82525050565b60a0820160008201516113e660008501826113a6565b5060208201516113f960208501826113a6565b50604082015161140c60408501826113a6565b50606082015161141f60608501826113a6565b50608082015161143260808501826113c1565b50505050565b600061144483836113d0565b60a08301905092915050565b6000602082019050919050565b60006114688261137a565b6114728185611385565b935061147d83611396565b8060005b838110156114ae5781516114958882611438565b97506114a083611450565b925050600181019050611481565b5085935050505092915050565b600060208201905081810360008301526114d5818461145d565b905092915050565b600081519050919050565b600082825260208201905092915050565b6000819050602082019050919050565b600061151583836113a6565b60208301905092915050565b6000602082019050919050565b6000611539826114dd565b61154381856114e8565b935061154e836114f9565b8060005b8381101561157f5781516115668882611509565b975061157183611521565b925050600181019050611552565b5085935050505092915050565b600060208201905081810360008301526115a6818461152e565b905092915050565b6115b78161130f565b82525050565b60006020820190506115d260008301846115ae565b92915050565b600080604083850312156115ef576115ee6111d7565b5b60006115fd85828601611338565b925050602061160e858286016111f3565b9150509250929050565b611621816113b5565b82525050565b600060a08201905061163c60008301886111ad565b61164960208301876111ad565b61165660408301866111ad565b61166360608301856111ad565b6116706080830184611618565b9695505050505050565b600082825260208201905092915050565b7f496e76616c6964207374616b6520696e64657800000000000000000000000000600082015250565b60006116c160138361167a565b91506116cc8261168b565b602082019050919050565b600060208201905081810360008301526116f0816116b4565b9050919050565b7f4e487b7100000000000000000000000000000000000000000000000000000000600052603260045260246000fd5b7f546f6b656e7320616c72656164792077697468647261776e0000000000000000600082015250565b600061175c60188361167a565b915061176782611726565b602082019050919050565b6000602082019050818103600083015261178b8161174f565b9050919050565b7f4e487b7100000000000000000000000000000000000000000000000000000000600052601160045260246000fd5b60006117cc826111a3565b91506117d7836111a3565b92508282019050808211156117ef576117ee611792565b5b92915050565b6000611800826111a3565b915061180b836111a3565b925082820390508181111561182357611822611792565b5b92915050565b7f496e76616c6964206475726174696f6e20696e64657800000000000000000000600082015250565b600061185f60168361167a565b915061186a82611829565b602082019050919050565b6000602082019050818103600083015261188e81611852565b9050919050565b6000815190506118a4816111dc565b92915050565b6000602082840312156118c0576118bf6111d7565b5b60006118ce84828501611895565b91505092915050565b7f496e73756666696369656e742042616c616e6365000000000000000000000000600082015250565b600061190d60148361167a565b9150611918826118d7565b602082019050919050565b6000602082019050818103600083015261193c81611900565b9050919050565b600060408201905061195860008301856111ad565b61196560208301846111ad565b9392505050565b7f4e487b7100000000000000000000000000000000000000000000000000000000600052604160045260246000fd5b7f4f6e6c79206f776e65722063616e2063616c6c20746869732066756e6374696f60008201527f6e00000000000000000000000000000000000000000000000000000000000000602082015250565b60006119f760218361167a565b9150611a028261199b565b604082019050919050565b60006020820190508181036000830152611a26816119ea565b9050919050565b7f496e76616c696420415059000000000000000000000000000000000000000000600082015250565b6000611a63600b8361167a565b9150611a6e82611a2d565b602082019050919050565b60006020820190508181036000830152611a9281611a56565b9050919050565b6000611aa4826111a3565b9150611aaf836111a3565b9250828202611abd816111a3565b91508282048414831517611ad457611ad3611792565b5b5092915050565b7f4e487b7100000000000000000000000000000000000000000000000000000000600052601260045260246000fd5b6000611b15826111a3565b9150611b20836111a3565b925082611b3057611b2f611adb565b5b828204905092915050565b6000604082019050611b5060008301856115ae565b611b5d60208301846111ad565b9392505050565b6000606082019050611b7960008301866115ae565b611b8660208301856115ae565b611b9360408301846111ad565b949350505050565b611ba4816113b5565b8114611baf57600080fd5b50565b600081519050611bc181611b9b565b92915050565b600060208284031215611bdd57611bdc6111d7565b5b6000611beb84828501611bb2565b91505092915050565b600081519050919050565b600081905092915050565b60005b83811015611c28578082015181840152602081019050611c0d565b60008484015250505050565b6000611c3f82611bf4565b611c498185611bff565b9350611c59818560208601611c0a565b80840191505092915050565b6000611c718284611c34565b91508190509291505056fea26469706673582212203a26b2fe622f886b94e9393b3faf429540d12027e7ff018bacd0e787256d8a2464736f6c63430008180033",
  "linkReferences": {},
  "deployedLinkReferences": {}
}