{
    "_format": "hh-sol-artifact-1",
    "contractName": "FixedStaking",
    "sourceName": "contracts/staker.sol",
    "abi": [
        {
            "inputs": [
                {
                    "internalType": "address",
                    "name": "_token",
                    "type": "address"
                }
            ],
            "stateMutability": "nonpayable",
            "type": "constructor"
        },
        {
            "inputs": [],
            "name": "ReentrancyGuardReentrantCall",
            "type": "error"
        },
        {
            "anonymous": false,
            "inputs": [
                {
                    "indexed": true,
                    "internalType": "address",
                    "name": "staker",
                    "type": "address"
                },
                {
                    "indexed": false,
                    "internalType": "uint256",
                    "name": "amount",
                    "type": "uint256"
                },
                {
                    "indexed": false,
                    "internalType": "uint256",
                    "name": "duration",
                    "type": "uint256"
                }
            ],
            "name": "Staked",
            "type": "event"
        },
        {
            "anonymous": false,
            "inputs": [
                {
                    "indexed": true,
                    "internalType": "address",
                    "name": "staker",
                    "type": "address"
                },
                {
                    "indexed": false,
                    "internalType": "uint256",
                    "name": "amount",
                    "type": "uint256"
                }
            ],
            "name": "Withdrawn",
            "type": "event"
        },
        {
            "inputs": [],
            "name": "APY_BASIS_POINTS",
            "outputs": [
                {
                    "internalType": "uint256",
                    "name": "",
                    "type": "uint256"
                }
            ],
            "stateMutability": "view",
            "type": "function"
        },
        {
            "inputs": [],
            "name": "WITHDRAWAL_TAX_PERCENT",
            "outputs": [
                {
                    "internalType": "uint256",
                    "name": "",
                    "type": "uint256"
                }
            ],
            "stateMutability": "view",
            "type": "function"
        },
        {
            "inputs": [
                {
                    "internalType": "uint256",
                    "name": "",
                    "type": "uint256"
                }
            ],
            "name": "durationToAPY",
            "outputs": [
                {
                    "internalType": "uint256",
                    "name": "",
                    "type": "uint256"
                }
            ],
            "stateMutability": "view",
            "type": "function"
        },
        {
            "inputs": [],
            "name": "getTVL",
            "outputs": [
                {
                    "internalType": "uint256",
                    "name": "",
                    "type": "uint256"
                }
            ],
            "stateMutability": "view",
            "type": "function"
        },
        {
            "inputs": [
                {
                    "internalType": "uint256",
                    "name": "_selectedDurationIndex",
                    "type": "uint256"
                },
                {
                    "internalType": "uint256",
                    "name": "_amount",
                    "type": "uint256"
                }
            ],
            "name": "stakeTokens",
            "outputs": [],
            "stateMutability": "nonpayable",
            "type": "function"
        },
        {
            "inputs": [
                {
                    "internalType": "address",
                    "name": "",
                    "type": "address"
                }
            ],
            "name": "stakingData",
            "outputs": [
                {
                    "internalType": "address",
                    "name": "staker",
                    "type": "address"
                },
                {
                    "internalType": "uint256",
                    "name": "amount",
                    "type": "uint256"
                },
                {
                    "internalType": "uint256",
                    "name": "duration",
                    "type": "uint256"
                },
                {
                    "internalType": "uint256",
                    "name": "startTime",
                    "type": "uint256"
                },
                {
                    "internalType": "uint256",
                    "name": "apy",
                    "type": "uint256"
                },
                {
                    "internalType": "bool",
                    "name": "isWithdrawn",
                    "type": "bool"
                }
            ],
            "stateMutability": "view",
            "type": "function"
        },
        {
            "inputs": [
                {
                    "internalType": "uint256",
                    "name": "",
                    "type": "uint256"
                }
            ],
            "name": "stakingDurations",
            "outputs": [
                {
                    "internalType": "uint256",
                    "name": "",
                    "type": "uint256"
                }
            ],
            "stateMutability": "view",
            "type": "function"
        },
        {
            "inputs": [],
            "name": "stakingToken",
            "outputs": [
                {
                    "internalType": "contract IERC20",
                    "name": "",
                    "type": "address"
                }
            ],
            "stateMutability": "view",
            "type": "function"
        },
        {
            "inputs": [],
            "name": "totalStaked",
            "outputs": [
                {
                    "internalType": "uint256",
                    "name": "",
                    "type": "uint256"
                }
            ],
            "stateMutability": "view",
            "type": "function"
        },
        {
            "inputs": [],
            "name": "withdrawTokens",
            "outputs": [],
            "stateMutability": "nonpayable",
            "type": "function"
        }
    ],
    "bytecode": "0x60806040526040518060a0016040528062093a8062ffffff1681526020016212750062ffffff168152602001621baf8062ffffff16815260200162278d0062ffffff168152602001624f1a0062ffffff168152506002906005620000659291906200017a565b503480156200007357600080fd5b50604051620015653803806200156583398181016040528101906200009991906200025c565b600160008190555080600160006101000a81548173ffffffffffffffffffffffffffffffffffffffff021916908373ffffffffffffffffffffffffffffffffffffffff1602179055506110046005600062093a8081526020019081526020016000208190555061106860056000621275008152602001908152602001600020819055506110cc60056000621baf808152602001908152602001600020819055506111306005600062278d0081526020019081526020016000208190555061119460056000624f1a00815260200190815260200160002081905550506200028e565b828054828255906000526020600020908101928215620001c0579160200282015b82811115620001bf578251829062ffffff169055916020019190600101906200019b565b5b509050620001cf9190620001d3565b5090565b5b80821115620001ee576000816000905550600101620001d4565b5090565b600080fd5b600073ffffffffffffffffffffffffffffffffffffffff82169050919050565b60006200022482620001f7565b9050919050565b620002368162000217565b81146200024257600080fd5b50565b60008151905062000256816200022b565b92915050565b600060208284031215620002755762000274620001f2565b5b6000620002858482850162000245565b91505092915050565b6112c7806200029e6000396000f3fe608060405234801561001057600080fd5b506004361061009e5760003560e01c80638d8f2adb116100665780638d8f2adb1461014957806397b3fcaa14610153578063b35f051714610171578063c9189e3e1461018f578063eca51139146101bf5761009e565b8063295926b2146100a357806333eae2c6146100c15780633b7b6188146100f157806372f702f31461010d578063817b1cd21461012b575b600080fd5b6100ab6101f4565b6040516100b89190610ae2565b60405180910390f35b6100db60048036038101906100d69190610b2e565b6101f9565b6040516100e89190610ae2565b60405180910390f35b61010b60048036038101906101069190610b5b565b610211565b005b610115610682565b6040516101229190610c1a565b60405180910390f35b6101336106a8565b6040516101409190610ae2565b60405180910390f35b6101516106ae565b005b61015b610993565b6040516101689190610ae2565b60405180910390f35b610179610a36565b6040516101869190610ae2565b60405180910390f35b6101a960048036038101906101a49190610b2e565b610a3c565b6040516101b69190610ae2565b60405180910390f35b6101d960048036038101906101d49190610c73565b610a60565b6040516101eb96959493929190610cca565b60405180910390f35b600181565b60056020528060005260406000206000915090505481565b6002805490508210610258576040517f08c379a000000000000000000000000000000000000000000000000000000000815260040161024f90610d88565b60405180910390fd5b80600160009054906101000a900473ffffffffffffffffffffffffffffffffffffffff1673ffffffffffffffffffffffffffffffffffffffff166370a08231336040518263ffffffff1660e01b81526004016102b49190610da8565b602060405180830381865afa1580156102d1573d6000803e3d6000fd5b505050506040513d601f19601f820116820180604052508101906102f59190610dd8565b1015610336576040517f08c379a000000000000000000000000000000000000000000000000000000000815260040161032d90610e51565b60405180910390fd5b6000600460003373ffffffffffffffffffffffffffffffffffffffff1673ffffffffffffffffffffffffffffffffffffffff16815260200190815260200160002090508060050160009054906101000a900460ff168061039a575060008160010154145b6103d9576040517f08c379a00000000000000000000000000000000000000000000000000000000081526004016103d090610ee3565b60405180910390fd5b6000600284815481106103ef576103ee610f03565b5b906000526020600020015490506000600560008381526020019081526020016000205490506040518060c001604052803373ffffffffffffffffffffffffffffffffffffffff16815260200185815260200183815260200142815260200182815260200160001515815250600460003373ffffffffffffffffffffffffffffffffffffffff1673ffffffffffffffffffffffffffffffffffffffff16815260200190815260200160002060008201518160000160006101000a81548173ffffffffffffffffffffffffffffffffffffffff021916908373ffffffffffffffffffffffffffffffffffffffff1602179055506020820151816001015560408201518160020155606082015181600301556080820151816004015560a08201518160050160006101000a81548160ff021916908315150217905550905050836003600082825461053d9190610f61565b925050819055506000600160009054906101000a900473ffffffffffffffffffffffffffffffffffffffff1673ffffffffffffffffffffffffffffffffffffffff166323b872dd3330886040518463ffffffff1660e01b81526004016105a593929190610f95565b6020604051808303816000875af11580156105c4573d6000803e3d6000fd5b505050506040513d601f19601f820116820180604052508101906105e89190610ff8565b90508061062a576040517f08c379a000000000000000000000000000000000000000000000000000000000815260040161062190611071565b60405180910390fd5b3373ffffffffffffffffffffffffffffffffffffffff167f1449c6dd7851abc30abf37f57715f492010519147cc2652fbc38202c18a6ee908685604051610672929190611091565b60405180910390a2505050505050565b600160009054906101000a900473ffffffffffffffffffffffffffffffffffffffff1681565b60035481565b6000600460003373ffffffffffffffffffffffffffffffffffffffff1673ffffffffffffffffffffffffffffffffffffffff16815260200190815260200160002090508060050160009054906101000a900460ff1615610743576040517f08c379a000000000000000000000000000000000000000000000000000000000815260040161073a90611106565b60405180910390fd5b806002015481600301546107579190610f61565b421015610799576040517f08c379a000000000000000000000000000000000000000000000000000000000815260040161079090611172565b60405180910390fd5b600064496cebb8008260020154836004015484600101546107ba9190611192565b6107c49190611192565b6107ce9190611203565b9050600060646001836107e19190611192565b6107eb9190611203565b90506000818385600101546108009190610f61565b61080a9190611234565b905060018460050160006101000a81548160ff02191690831515021790555060035481111561084057600060038190555061085a565b80600360008282546108529190611234565b925050819055505b6000600160009054906101000a900473ffffffffffffffffffffffffffffffffffffffff1673ffffffffffffffffffffffffffffffffffffffff1663a9059cbb33846040518363ffffffff1660e01b81526004016108b9929190611268565b6020604051808303816000875af11580156108d8573d6000803e3d6000fd5b505050506040513d601f19601f820116820180604052508101906108fc9190610ff8565b90508061093e576040517f08c379a000000000000000000000000000000000000000000000000000000000815260040161093590611071565b60405180910390fd5b3373ffffffffffffffffffffffffffffffffffffffff167f7084f5476618d8e60b11ef0d7d3f06914655adb8793e28ff7f018d4c76d505d5836040516109849190610ae2565b60405180910390a25050505050565b6000600160009054906101000a900473ffffffffffffffffffffffffffffffffffffffff1673ffffffffffffffffffffffffffffffffffffffff166370a08231306040518263ffffffff1660e01b81526004016109f09190610da8565b602060405180830381865afa158015610a0d573d6000803e3d6000fd5b505050506040513d601f19601f82011682018060405250810190610a319190610dd8565b905090565b610fa081565b60028181548110610a4c57600080fd5b906000526020600020016000915090505481565b60046020528060005260406000206000915090508060000160009054906101000a900473ffffffffffffffffffffffffffffffffffffffff16908060010154908060020154908060030154908060040154908060050160009054906101000a900460ff16905086565b6000819050919050565b610adc81610ac9565b82525050565b6000602082019050610af76000830184610ad3565b92915050565b600080fd5b610b0b81610ac9565b8114610b1657600080fd5b50565b600081359050610b2881610b02565b92915050565b600060208284031215610b4457610b43610afd565b5b6000610b5284828501610b19565b91505092915050565b60008060408385031215610b7257610b71610afd565b5b6000610b8085828601610b19565b9250506020610b9185828601610b19565b9150509250929050565b600073ffffffffffffffffffffffffffffffffffffffff82169050919050565b6000819050919050565b6000610be0610bdb610bd684610b9b565b610bbb565b610b9b565b9050919050565b6000610bf282610bc5565b9050919050565b6000610c0482610be7565b9050919050565b610c1481610bf9565b82525050565b6000602082019050610c2f6000830184610c0b565b92915050565b6000610c4082610b9b565b9050919050565b610c5081610c35565b8114610c5b57600080fd5b50565b600081359050610c6d81610c47565b92915050565b600060208284031215610c8957610c88610afd565b5b6000610c9784828501610c5e565b91505092915050565b610ca981610c35565b82525050565b60008115159050919050565b610cc481610caf565b82525050565b600060c082019050610cdf6000830189610ca0565b610cec6020830188610ad3565b610cf96040830187610ad3565b610d066060830186610ad3565b610d136080830185610ad3565b610d2060a0830184610cbb565b979650505050505050565b600082825260208201905092915050565b7f496e76616c6964206475726174696f6e20696e64657800000000000000000000600082015250565b6000610d72601683610d2b565b9150610d7d82610d3c565b602082019050919050565b60006020820190508181036000830152610da181610d65565b9050919050565b6000602082019050610dbd6000830184610ca0565b92915050565b600081519050610dd281610b02565b92915050565b600060208284031215610dee57610ded610afd565b5b6000610dfc84828501610dc3565b91505092915050565b7f496e73756666696369656e742042616c616e6365000000000000000000000000600082015250565b6000610e3b601483610d2b565b9150610e4682610e05565b602082019050919050565b60006020820190508181036000830152610e6a81610e2e565b9050919050565b7f596f75206861766520616c7265616479207374616b656420746f6b656e73206160008201527f6e64206e6f74207965742077697468647261776e207468656d00000000000000602082015250565b6000610ecd603983610d2b565b9150610ed882610e71565b604082019050919050565b60006020820190508181036000830152610efc81610ec0565b9050919050565b7f4e487b7100000000000000000000000000000000000000000000000000000000600052603260045260246000fd5b7f4e487b7100000000000000000000000000000000000000000000000000000000600052601160045260246000fd5b6000610f6c82610ac9565b9150610f7783610ac9565b9250828201905080821115610f8f57610f8e610f32565b5b92915050565b6000606082019050610faa6000830186610ca0565b610fb76020830185610ca0565b610fc46040830184610ad3565b949350505050565b610fd581610caf565b8114610fe057600080fd5b50565b600081519050610ff281610fcc565b92915050565b60006020828403121561100e5761100d610afd565b5b600061101c84828501610fe3565b91505092915050565b7f5472616e73666572204661696c65640000000000000000000000000000000000600082015250565b600061105b600f83610d2b565b915061106682611025565b602082019050919050565b6000602082019050818103600083015261108a8161104e565b9050919050565b60006040820190506110a66000830185610ad3565b6110b36020830184610ad3565b9392505050565b7f546f6b656e7320616c72656164792077697468647261776e0000000000000000600082015250565b60006110f0601883610d2b565b91506110fb826110ba565b602082019050919050565b6000602082019050818103600083015261111f816110e3565b9050919050565b7f5374616b696e6720706572696f64206e6f74206f766572000000000000000000600082015250565b600061115c601783610d2b565b915061116782611126565b602082019050919050565b6000602082019050818103600083015261118b8161114f565b9050919050565b600061119d82610ac9565b91506111a883610ac9565b92508282026111b681610ac9565b915082820484148315176111cd576111cc610f32565b5b5092915050565b7f4e487b7100000000000000000000000000000000000000000000000000000000600052601260045260246000fd5b600061120e82610ac9565b915061121983610ac9565b925082611229576112286111d4565b5b828204905092915050565b600061123f82610ac9565b915061124a83610ac9565b925082820390508181111561126257611261610f32565b5b92915050565b600060408201905061127d6000830185610ca0565b61128a6020830184610ad3565b939250505056fea2646970667358221220b1848bd3576ad61e34f8b40ad0f685cc0abb207dabd94e3c9f85b99ff27e6da564736f6c63430008180033",
    "linkReferences": {},
    "deployedLinkReferences": {}
}