{
  "_format": "hh-sol-artifact-1",
  "contractName": "FixedStaking",
  "sourceName": "contracts/staker.sol",
  "abi": [
    {
      "inputs": [
        {
          "internalType": "address",
          "name": "_token",
          "type": "address"
        }
      ],
      "stateMutability": "nonpayable",
      "type": "constructor"
    },
    {
      "inputs": [
        {
          "internalType": "address",
          "name": "target",
          "type": "address"
        }
      ],
      "name": "AddressEmptyCode",
      "type": "error"
    },
    {
      "inputs": [
        {
          "internalType": "address",
          "name": "account",
          "type": "address"
        }
      ],
      "name": "AddressInsufficientBalance",
      "type": "error"
    },
    {
      "inputs": [],
      "name": "FailedInnerCall",
      "type": "error"
    },
    {
      "inputs": [],
      "name": "ReentrancyGuardReentrantCall",
      "type": "error"
    },
    {
      "inputs": [
        {
          "internalType": "address",
          "name": "token",
          "type": "address"
        }
      ],
      "name": "SafeERC20FailedOperation",
      "type": "error"
    },
    {
      "anonymous": false,
      "inputs": [
        {
          "indexed": true,
          "internalType": "address",
          "name": "staker",
          "type": "address"
        },
        {
          "indexed": false,
          "internalType": "uint256",
          "name": "amount",
          "type": "uint256"
        },
        {
          "indexed": false,
          "internalType": "uint256",
          "name": "duration",
          "type": "uint256"
        }
      ],
      "name": "Staked",
      "type": "event"
    },
    {
      "anonymous": false,
      "inputs": [
        {
          "indexed": true,
          "internalType": "address",
          "name": "staker",
          "type": "address"
        },
        {
          "indexed": false,
          "internalType": "uint256",
          "name": "amount",
          "type": "uint256"
        }
      ],
      "name": "Withdrawn",
      "type": "event"
    },
    {
      "inputs": [],
      "name": "EARLY_WITHDRAWAL_TAX_PERCENT",
      "outputs": [
        {
          "internalType": "uint256",
          "name": "",
          "type": "uint256"
        }
      ],
      "stateMutability": "view",
      "type": "function"
    },
    {
      "inputs": [],
      "name": "WITHDRAWAL_TAX_PERCENT",
      "outputs": [
        {
          "internalType": "uint256",
          "name": "",
          "type": "uint256"
        }
      ],
      "stateMutability": "view",
      "type": "function"
    },
    {
      "inputs": [
        {
          "internalType": "address",
          "name": "_user",
          "type": "address"
        },
        {
          "internalType": "uint256",
          "name": "_stakeIndex",
          "type": "uint256"
        }
      ],
      "name": "calculateRewardForStake",
      "outputs": [
        {
          "internalType": "uint256",
          "name": "",
          "type": "uint256"
        }
      ],
      "stateMutability": "view",
      "type": "function"
    },
    {
      "inputs": [
        {
          "internalType": "uint256",
          "name": "",
          "type": "uint256"
        }
      ],
      "name": "durationToAPY",
      "outputs": [
        {
          "internalType": "uint256",
          "name": "",
          "type": "uint256"
        }
      ],
      "stateMutability": "view",
      "type": "function"
    },
    {
      "inputs": [
        {
          "internalType": "address",
          "name": "_user",
          "type": "address"
        }
      ],
      "name": "getStakes",
      "outputs": [
        {
          "components": [
            {
              "internalType": "uint256",
              "name": "amount",
              "type": "uint256"
            },
            {
              "internalType": "uint256",
              "name": "duration",
              "type": "uint256"
            },
            {
              "internalType": "uint256",
              "name": "startTime",
              "type": "uint256"
            },
            {
              "internalType": "uint256",
              "name": "apy",
              "type": "uint256"
            },
            {
              "internalType": "bool",
              "name": "isWithdrawn",
              "type": "bool"
            }
          ],
          "internalType": "struct FixedStaking.Stake[]",
          "name": "",
          "type": "tuple[]"
        }
      ],
      "stateMutability": "view",
      "type": "function"
    },
    {
      "inputs": [],
      "name": "getTVL",
      "outputs": [
        {
          "internalType": "uint256",
          "name": "",
          "type": "uint256"
        }
      ],
      "stateMutability": "view",
      "type": "function"
    },
    {
      "inputs": [],
      "name": "owner",
      "outputs": [
        {
          "internalType": "address",
          "name": "",
          "type": "address"
        }
      ],
      "stateMutability": "view",
      "type": "function"
    },
    {
      "inputs": [
        {
          "internalType": "uint256",
          "name": "_selectedDurationIndex",
          "type": "uint256"
        },
        {
          "internalType": "uint256",
          "name": "_amount",
          "type": "uint256"
        }
      ],
      "name": "stakeTokens",
      "outputs": [],
      "stateMutability": "nonpayable",
      "type": "function"
    },
    {
      "inputs": [
        {
          "internalType": "uint256",
          "name": "",
          "type": "uint256"
        }
      ],
      "name": "stakingDurations",
      "outputs": [
        {
          "internalType": "uint256",
          "name": "",
          "type": "uint256"
        }
      ],
      "stateMutability": "view",
      "type": "function"
    },
    {
      "inputs": [],
      "name": "stakingToken",
      "outputs": [
        {
          "internalType": "contract IERC20",
          "name": "",
          "type": "address"
        }
      ],
      "stateMutability": "view",
      "type": "function"
    },
    {
      "inputs": [],
      "name": "totalStaked",
      "outputs": [
        {
          "internalType": "uint256",
          "name": "",
          "type": "uint256"
        }
      ],
      "stateMutability": "view",
      "type": "function"
    },
    {
      "inputs": [
        {
          "internalType": "uint256",
          "name": "_duration",
          "type": "uint256"
        },
        {
          "internalType": "uint256",
          "name": "_newAPY",
          "type": "uint256"
        }
      ],
      "name": "updateAPY",
      "outputs": [],
      "stateMutability": "nonpayable",
      "type": "function"
    },
    {
      "inputs": [
        {
          "internalType": "address",
          "name": "",
          "type": "address"
        },
        {
          "internalType": "uint256",
          "name": "",
          "type": "uint256"
        }
      ],
      "name": "userStakes",
      "outputs": [
        {
          "internalType": "uint256",
          "name": "amount",
          "type": "uint256"
        },
        {
          "internalType": "uint256",
          "name": "duration",
          "type": "uint256"
        },
        {
          "internalType": "uint256",
          "name": "startTime",
          "type": "uint256"
        },
        {
          "internalType": "uint256",
          "name": "apy",
          "type": "uint256"
        },
        {
          "internalType": "bool",
          "name": "isWithdrawn",
          "type": "bool"
        }
      ],
      "stateMutability": "view",
      "type": "function"
    },
    {
      "inputs": [
        {
          "internalType": "uint256",
          "name": "_stakeIndex",
          "type": "uint256"
        }
      ],
      "name": "withdrawTokens",
      "outputs": [
        {
          "internalType": "uint256",
          "name": "",
          "type": "uint256"
        }
      ],
      "stateMutability": "nonpayable",
      "type": "function"
    }
  ],
  "bytecode": "0x60806040526040518060a0016040528062093a8062ffffff1681526020016212750062ffffff168152602001621baf8062ffffff16815260200162278d0062ffffff168152602001624f1a0062ffffff16815250600590600562000065929190620001bb565b503480156200007357600080fd5b5060405162001e4f38038062001e4f83398181016040528101906200009991906200029d565b600160008190555080600160006101000a81548173ffffffffffffffffffffffffffffffffffffffff021916908373ffffffffffffffffffffffffffffffffffffffff1602179055506110046004600062093a8081526020019081526020016000208190555061106860046000621275008152602001908152602001600020819055506110cc60046000621baf808152602001908152602001600020819055506111306004600062278d0081526020019081526020016000208190555061119460046000624f1a0081526020019081526020016000208190555033600260006101000a81548173ffffffffffffffffffffffffffffffffffffffff021916908373ffffffffffffffffffffffffffffffffffffffff16021790555050620002cf565b82805482825590600052602060002090810192821562000201579160200282015b8281111562000200578251829062ffffff16905591602001919060010190620001dc565b5b50905062000210919062000214565b5090565b5b808211156200022f57600081600090555060010162000215565b5090565b600080fd5b600073ffffffffffffffffffffffffffffffffffffffff82169050919050565b6000620002658262000238565b9050919050565b620002778162000258565b81146200028357600080fd5b50565b60008151905062000297816200026c565b92915050565b600060208284031215620002b657620002b562000233565b5b6000620002c68482850162000286565b91505092915050565b611b7080620002df6000396000f3fe608060405234801561001057600080fd5b50600436106100ea5760003560e01c80638da5cb5b1161008c578063b5d5b5fa11610066578063b5d5b5fa1461024d578063c9189e3e14610281578063cfff0732146102b1578063dc2c9de5146102cf576100ea565b80638da5cb5b146101f557806397b3fcaa14610213578063aa9a196f14610231576100ea565b80633b7b6188116100c85780633b7b61881461016d57806372f702f3146101895780637ba6f458146101a7578063817b1cd2146101d7576100ea565b8063295926b2146100ef578063315a095d1461010d57806333eae2c61461013d575b600080fd5b6100f76102ff565b604051610104919061117a565b60405180910390f35b610127600480360381019061012291906111c6565b610304565b604051610134919061117a565b60405180910390f35b610157600480360381019061015291906111c6565b61054c565b604051610164919061117a565b60405180910390f35b610187600480360381019061018291906111f3565b610564565b005b61019161086e565b60405161019e91906112b2565b60405180910390f35b6101c160048036038101906101bc919061130b565b610894565b6040516101ce9190611479565b60405180910390f35b6101df610975565b6040516101ec919061117a565b60405180910390f35b6101fd61097b565b60405161020a91906114aa565b60405180910390f35b61021b6109a1565b604051610228919061117a565b60405180910390f35b61024b600480360381019061024691906111f3565b610a44565b005b610267600480360381019061026291906114c5565b610b33565b604051610278959493929190611514565b60405180910390f35b61029b600480360381019061029691906111c6565b610b93565b6040516102a8919061117a565b60405180910390f35b6102b9610bb7565b6040516102c6919061117a565b60405180910390f35b6102e960048036038101906102e491906114c5565b610bbc565b6040516102f6919061117a565b60405180910390f35b600181565b600061030e610cb7565b600360003373ffffffffffffffffffffffffffffffffffffffff1673ffffffffffffffffffffffffffffffffffffffff168152602001908152602001600020805490508210610392576040517f08c379a0000000000000000000000000000000000000000000000000000000008152600401610389906115c4565b60405180910390fd5b6000600360003373ffffffffffffffffffffffffffffffffffffffff1673ffffffffffffffffffffffffffffffffffffffff16815260200190815260200160002083815481106103e5576103e46115e4565b5b906000526020600020906005020190508060040160009054906101000a900460ff1615610447576040517f08c379a000000000000000000000000000000000000000000000000000000000815260040161043e9061165f565b60405180910390fd5b600061045282610cfd565b9050600081836000015461046691906116ae565b905060018360040160006101000a81548160ff021916908315150217905550806006600082825461049791906116e2565b925050819055506104eb3382600160009054906101000a900473ffffffffffffffffffffffffffffffffffffffff1673ffffffffffffffffffffffffffffffffffffffff16610e089092919063ffffffff16565b3373ffffffffffffffffffffffffffffffffffffffff167f7084f5476618d8e60b11ef0d7d3f06914655adb8793e28ff7f018d4c76d505d582604051610531919061117a565b60405180910390a2809350505050610547610e87565b919050565b60046020528060005260406000206000915090505481565b61056c610cb7565b60058054905082106105b3576040517f08c379a00000000000000000000000000000000000000000000000000000000081526004016105aa90611762565b60405180910390fd5b80600160009054906101000a900473ffffffffffffffffffffffffffffffffffffffff1673ffffffffffffffffffffffffffffffffffffffff166370a08231336040518263ffffffff1660e01b815260040161060f91906114aa565b602060405180830381865afa15801561062c573d6000803e3d6000fd5b505050506040513d601f19601f820116820180604052508101906106509190611797565b1015610691576040517f08c379a000000000000000000000000000000000000000000000000000000000815260040161068890611810565b60405180910390fd5b6000600583815481106106a7576106a66115e4565b5b90600052602060002001549050600060046000838152602001908152602001600020549050600360003373ffffffffffffffffffffffffffffffffffffffff1673ffffffffffffffffffffffffffffffffffffffff1681526020019081526020016000206040518060a001604052808581526020018481526020014281526020018381526020016000151581525090806001815401808255809150506001900390600052602060002090600502016000909190919091506000820151816000015560208201518160010155604082015181600201556060820151816003015560808201518160040160006101000a81548160ff021916908315150217905550505082600660008282546107ba91906116ae565b92505081905550610810333085600160009054906101000a900473ffffffffffffffffffffffffffffffffffffffff1673ffffffffffffffffffffffffffffffffffffffff16610e91909392919063ffffffff16565b3373ffffffffffffffffffffffffffffffffffffffff167f1449c6dd7851abc30abf37f57715f492010519147cc2652fbc38202c18a6ee908484604051610858929190611830565b60405180910390a2505061086a610e87565b5050565b600160009054906101000a900473ffffffffffffffffffffffffffffffffffffffff1681565b6060600360008373ffffffffffffffffffffffffffffffffffffffff1673ffffffffffffffffffffffffffffffffffffffff168152602001908152602001600020805480602002602001604051908101604052809291908181526020016000905b8282101561096a57838290600052602060002090600502016040518060a0016040529081600082015481526020016001820154815260200160028201548152602001600382015481526020016004820160009054906101000a900460ff161515151581525050815260200190600101906108f5565b505050509050919050565b60065481565b600260009054906101000a900473ffffffffffffffffffffffffffffffffffffffff1681565b6000600160009054906101000a900473ffffffffffffffffffffffffffffffffffffffff1673ffffffffffffffffffffffffffffffffffffffff166370a08231306040518263ffffffff1660e01b81526004016109fe91906114aa565b602060405180830381865afa158015610a1b573d6000803e3d6000fd5b505050506040513d601f19601f82011682018060405250810190610a3f9190611797565b905090565b600260009054906101000a900473ffffffffffffffffffffffffffffffffffffffff1673ffffffffffffffffffffffffffffffffffffffff163373ffffffffffffffffffffffffffffffffffffffff1614610ad4576040517f08c379a0000000000000000000000000000000000000000000000000000000008152600401610acb906118cb565b60405180910390fd5b60008111610b17576040517f08c379a0000000000000000000000000000000000000000000000000000000008152600401610b0e90611937565b60405180910390fd5b8060046000848152602001908152602001600020819055505050565b60036020528160005260406000208181548110610b4f57600080fd5b9060005260206000209060050201600091509150508060000154908060010154908060020154908060030154908060040160009054906101000a900460ff16905085565b60058181548110610ba357600080fd5b906000526020600020016000915090505481565b600481565b6000600360008473ffffffffffffffffffffffffffffffffffffffff1673ffffffffffffffffffffffffffffffffffffffff168152602001908152602001600020805490508210610c42576040517f08c379a0000000000000000000000000000000000000000000000000000000008152600401610c39906115c4565b60405180910390fd5b6000600360008573ffffffffffffffffffffffffffffffffffffffff1673ffffffffffffffffffffffffffffffffffffffff1681526020019081526020016000208381548110610c9557610c946115e4565b5b90600052602060002090600502019050610cae81610cfd565b91505092915050565b600260005403610cf3576040517f3ee5aeb500000000000000000000000000000000000000000000000000000000815260040160405180910390fd5b6002600081905550565b600080826002015442610d1091906116e2565b9050600083600101548210610d9557600064496cebb800620151808660010154610d3a9190611986565b86600301548760000154610d4e91906119b7565b610d5891906119b7565b610d629190611986565b90506064600182610d7391906119b7565b610d7d9190611986565b91508181610d8b91906116e2565b9350505050610e03565b600064496cebb8006201518084610dac9190611986565b86600301548760000154610dc091906119b7565b610dca91906119b7565b610dd49190611986565b90506064600482610de591906119b7565b610def9190611986565b91508181610dfd91906116e2565b93505050505b919050565b610e82838473ffffffffffffffffffffffffffffffffffffffff1663a9059cbb8585604051602401610e3b9291906119f9565b604051602081830303815290604052915060e01b6020820180517bffffffffffffffffffffffffffffffffffffffffffffffffffffffff8381831617835250505050610f13565b505050565b6001600081905550565b610f0d848573ffffffffffffffffffffffffffffffffffffffff166323b872dd868686604051602401610ec693929190611a22565b604051602081830303815290604052915060e01b6020820180517bffffffffffffffffffffffffffffffffffffffffffffffffffffffff8381831617835250505050610f13565b50505050565b6000610f3e828473ffffffffffffffffffffffffffffffffffffffff16610faa90919063ffffffff16565b90506000815114158015610f63575080806020019051810190610f619190611a85565b155b15610fa557826040517f5274afe7000000000000000000000000000000000000000000000000000000008152600401610f9c91906114aa565b60405180910390fd5b505050565b6060610fb883836000610fc0565b905092915050565b60608147101561100757306040517fcd786059000000000000000000000000000000000000000000000000000000008152600401610ffe91906114aa565b60405180910390fd5b6000808573ffffffffffffffffffffffffffffffffffffffff1684866040516110309190611b23565b60006040518083038185875af1925050503d806000811461106d576040519150601f19603f3d011682016040523d82523d6000602084013e611072565b606091505b509150915061108286838361108d565b925050509392505050565b6060826110a25761109d8261111c565b611114565b600082511480156110ca575060008473ffffffffffffffffffffffffffffffffffffffff163b145b1561110c57836040517f9996b31500000000000000000000000000000000000000000000000000000000815260040161110391906114aa565b60405180910390fd5b819050611115565b5b9392505050565b60008151111561112f5780518082602001fd5b6040517f1425ea4200000000000000000000000000000000000000000000000000000000815260040160405180910390fd5b6000819050919050565b61117481611161565b82525050565b600060208201905061118f600083018461116b565b92915050565b600080fd5b6111a381611161565b81146111ae57600080fd5b50565b6000813590506111c08161119a565b92915050565b6000602082840312156111dc576111db611195565b5b60006111ea848285016111b1565b91505092915050565b6000806040838503121561120a57611209611195565b5b6000611218858286016111b1565b9250506020611229858286016111b1565b9150509250929050565b600073ffffffffffffffffffffffffffffffffffffffff82169050919050565b6000819050919050565b600061127861127361126e84611233565b611253565b611233565b9050919050565b600061128a8261125d565b9050919050565b600061129c8261127f565b9050919050565b6112ac81611291565b82525050565b60006020820190506112c760008301846112a3565b92915050565b60006112d882611233565b9050919050565b6112e8816112cd565b81146112f357600080fd5b50565b600081359050611305816112df565b92915050565b60006020828403121561132157611320611195565b5b600061132f848285016112f6565b91505092915050565b600081519050919050565b600082825260208201905092915050565b6000819050602082019050919050565b61136d81611161565b82525050565b60008115159050919050565b61138881611373565b82525050565b60a0820160008201516113a46000850182611364565b5060208201516113b76020850182611364565b5060408201516113ca6040850182611364565b5060608201516113dd6060850182611364565b5060808201516113f0608085018261137f565b50505050565b6000611402838361138e565b60a08301905092915050565b6000602082019050919050565b600061142682611338565b6114308185611343565b935061143b83611354565b8060005b8381101561146c57815161145388826113f6565b975061145e8361140e565b92505060018101905061143f565b5085935050505092915050565b60006020820190508181036000830152611493818461141b565b905092915050565b6114a4816112cd565b82525050565b60006020820190506114bf600083018461149b565b92915050565b600080604083850312156114dc576114db611195565b5b60006114ea858286016112f6565b92505060206114fb858286016111b1565b9150509250929050565b61150e81611373565b82525050565b600060a082019050611529600083018861116b565b611536602083018761116b565b611543604083018661116b565b611550606083018561116b565b61155d6080830184611505565b9695505050505050565b600082825260208201905092915050565b7f496e76616c6964207374616b6520696e64657800000000000000000000000000600082015250565b60006115ae601383611567565b91506115b982611578565b602082019050919050565b600060208201905081810360008301526115dd816115a1565b9050919050565b7f4e487b7100000000000000000000000000000000000000000000000000000000600052603260045260246000fd5b7f546f6b656e7320616c72656164792077697468647261776e0000000000000000600082015250565b6000611649601883611567565b915061165482611613565b602082019050919050565b600060208201905081810360008301526116788161163c565b9050919050565b7f4e487b7100000000000000000000000000000000000000000000000000000000600052601160045260246000fd5b60006116b982611161565b91506116c483611161565b92508282019050808211156116dc576116db61167f565b5b92915050565b60006116ed82611161565b91506116f883611161565b92508282039050818111156117105761170f61167f565b5b92915050565b7f496e76616c6964206475726174696f6e20696e64657800000000000000000000600082015250565b600061174c601683611567565b915061175782611716565b602082019050919050565b6000602082019050818103600083015261177b8161173f565b9050919050565b6000815190506117918161119a565b92915050565b6000602082840312156117ad576117ac611195565b5b60006117bb84828501611782565b91505092915050565b7f496e73756666696369656e742042616c616e6365000000000000000000000000600082015250565b60006117fa601483611567565b9150611805826117c4565b602082019050919050565b60006020820190508181036000830152611829816117ed565b9050919050565b6000604082019050611845600083018561116b565b611852602083018461116b565b9392505050565b7f4f6e6c79206f776e65722063616e2063616c6c20746869732066756e6374696f60008201527f6e00000000000000000000000000000000000000000000000000000000000000602082015250565b60006118b5602183611567565b91506118c082611859565b604082019050919050565b600060208201905081810360008301526118e4816118a8565b9050919050565b7f496e76616c696420415059000000000000000000000000000000000000000000600082015250565b6000611921600b83611567565b915061192c826118eb565b602082019050919050565b6000602082019050818103600083015261195081611914565b9050919050565b7f4e487b7100000000000000000000000000000000000000000000000000000000600052601260045260246000fd5b600061199182611161565b915061199c83611161565b9250826119ac576119ab611957565b5b828204905092915050565b60006119c282611161565b91506119cd83611161565b92508282026119db81611161565b915082820484148315176119f2576119f161167f565b5b5092915050565b6000604082019050611a0e600083018561149b565b611a1b602083018461116b565b9392505050565b6000606082019050611a37600083018661149b565b611a44602083018561149b565b611a51604083018461116b565b949350505050565b611a6281611373565b8114611a6d57600080fd5b50565b600081519050611a7f81611a59565b92915050565b600060208284031215611a9b57611a9a611195565b5b6000611aa984828501611a70565b91505092915050565b600081519050919050565b600081905092915050565b60005b83811015611ae6578082015181840152602081019050611acb565b60008484015250505050565b6000611afd82611ab2565b611b078185611abd565b9350611b17818560208601611ac8565b80840191505092915050565b6000611b2f8284611af2565b91508190509291505056fea2646970667358221220742b284a6292019206c94efebf4182bcfd43554846df8de12320f70c137d28e764736f6c63430008180033",
  "linkReferences": {},
  "deployedLinkReferences": {}
}